{
  "_format": "hh-sol-artifact-1",
  "contractName": "EscrowFactory",
  "sourceName": "contracts/EscrowFactory.sol",
  "abi": [
    {
      "inputs": [],
      "stateMutability": "nonpayable",
      "type": "constructor"
    },
    {
      "anonymous": false,
      "inputs": [
        {
          "indexed": false,
          "internalType": "address",
          "name": "previousAdmin",
          "type": "address"
        },
        {
          "indexed": false,
          "internalType": "address",
          "name": "newAdmin",
          "type": "address"
        }
      ],
      "name": "AdminChanged",
      "type": "event"
    },
    {
      "anonymous": false,
      "inputs": [
        {
          "indexed": true,
          "internalType": "address",
          "name": "beacon",
          "type": "address"
        }
      ],
      "name": "BeaconUpgraded",
      "type": "event"
    },
    {
      "anonymous": false,
      "inputs": [
        {
          "indexed": false,
          "internalType": "uint8",
          "name": "version",
          "type": "uint8"
        }
      ],
      "name": "Initialized",
      "type": "event"
    },
    {
      "anonymous": false,
      "inputs": [
        {
          "indexed": false,
          "internalType": "address",
          "name": "token",
          "type": "address"
        },
        {
          "indexed": false,
          "internalType": "address",
          "name": "escrow",
          "type": "address"
        }
      ],
      "name": "Launched",
      "type": "event"
    },
    {
      "anonymous": false,
      "inputs": [
        {
          "indexed": false,
          "internalType": "address",
          "name": "token",
          "type": "address"
        },
        {
          "indexed": false,
          "internalType": "address",
          "name": "escrow",
          "type": "address"
        },
        {
          "indexed": false,
          "internalType": "string",
          "name": "jobRequesterId",
          "type": "string"
        }
      ],
      "name": "LaunchedV2",
      "type": "event"
    },
    {
      "anonymous": false,
      "inputs": [
        {
          "indexed": true,
          "internalType": "address",
          "name": "previousOwner",
          "type": "address"
        },
        {
          "indexed": true,
          "internalType": "address",
          "name": "newOwner",
          "type": "address"
        }
      ],
      "name": "OwnershipTransferred",
      "type": "event"
    },
    {
      "anonymous": false,
      "inputs": [
        {
          "indexed": true,
          "internalType": "address",
          "name": "implementation",
          "type": "address"
        }
      ],
      "name": "Upgraded",
      "type": "event"
    },
    {
      "inputs": [],
      "name": "counter",
      "outputs": [
        {
          "internalType": "uint256",
          "name": "",
          "type": "uint256"
        }
      ],
      "stateMutability": "view",
      "type": "function"
    },
    {
      "inputs": [
        {
          "internalType": "address",
          "name": "token",
          "type": "address"
        },
        {
          "internalType": "address[]",
          "name": "trustedHandlers",
          "type": "address[]"
        },
        {
          "internalType": "string",
          "name": "jobRequesterId",
          "type": "string"
        }
      ],
      "name": "createEscrow",
      "outputs": [
        {
          "internalType": "address",
          "name": "",
          "type": "address"
        }
      ],
      "stateMutability": "nonpayable",
      "type": "function"
    },
    {
      "inputs": [
        {
          "internalType": "address",
          "name": "",
          "type": "address"
        }
      ],
      "name": "escrowCounters",
      "outputs": [
        {
          "internalType": "uint256",
          "name": "",
          "type": "uint256"
        }
      ],
      "stateMutability": "view",
      "type": "function"
    },
    {
      "inputs": [
        {
          "internalType": "address",
          "name": "_address",
          "type": "address"
        }
      ],
      "name": "hasEscrow",
      "outputs": [
        {
          "internalType": "bool",
          "name": "",
          "type": "bool"
        }
      ],
      "stateMutability": "view",
      "type": "function"
    },
    {
      "inputs": [
        {
          "internalType": "address",
          "name": "_staking",
          "type": "address"
        }
      ],
      "name": "initialize",
      "outputs": [],
      "stateMutability": "payable",
      "type": "function"
    },
    {
      "inputs": [],
      "name": "lastEscrow",
      "outputs": [
        {
          "internalType": "address",
          "name": "",
          "type": "address"
        }
      ],
      "stateMutability": "view",
      "type": "function"
    },
    {
      "inputs": [],
      "name": "owner",
      "outputs": [
        {
          "internalType": "address",
          "name": "",
          "type": "address"
        }
      ],
      "stateMutability": "view",
      "type": "function"
    },
    {
      "inputs": [],
      "name": "proxiableUUID",
      "outputs": [
        {
          "internalType": "bytes32",
          "name": "",
          "type": "bytes32"
        }
      ],
      "stateMutability": "view",
      "type": "function"
    },
    {
      "inputs": [],
      "name": "renounceOwnership",
      "outputs": [],
      "stateMutability": "nonpayable",
      "type": "function"
    },
    {
      "inputs": [],
      "name": "staking",
      "outputs": [
        {
          "internalType": "address",
          "name": "",
          "type": "address"
        }
      ],
      "stateMutability": "view",
      "type": "function"
    },
    {
      "inputs": [
        {
          "internalType": "address",
          "name": "newOwner",
          "type": "address"
        }
      ],
      "name": "transferOwnership",
      "outputs": [],
      "stateMutability": "nonpayable",
      "type": "function"
    },
    {
      "inputs": [
        {
          "internalType": "address",
          "name": "newImplementation",
          "type": "address"
        }
      ],
      "name": "upgradeTo",
      "outputs": [],
      "stateMutability": "nonpayable",
      "type": "function"
    },
    {
      "inputs": [
        {
          "internalType": "address",
          "name": "newImplementation",
          "type": "address"
        },
        {
          "internalType": "bytes",
          "name": "data",
          "type": "bytes"
        }
      ],
      "name": "upgradeToAndCall",
      "outputs": [],
      "stateMutability": "payable",
      "type": "function"
    }
  ],
  "bytecode": "0x60a06040523060805234801561001457600080fd5b5061001d610022565b6100e1565b600054610100900460ff161561008e5760405162461bcd60e51b815260206004820152602760248201527f496e697469616c697a61626c653a20636f6e747261637420697320696e697469604482015266616c697a696e6760c81b606482015260840160405180910390fd5b60005460ff908116146100df576000805460ff191660ff9081179091556040519081527f7f26b83ff96e1f2b6a682f133852f6798a09c465da95921460cefb38474024989060200160405180910390a15b565b6080516151216200011960003960008181610336015281816103ec01528181610549015281816105fb015261074b01526151216000f3fe608060405260043610620000e35760003560e01c806361bc221a11620000895780638da5cb5b11620000605780638da5cb5b1462000284578063979530e614620002b1578063c4d66de814620002e2578063f2fde38b14620002f957600080fd5b806361bc221a146200022f578063715018a614620002475780637e598797146200025f57600080fd5b80634f1ef28611620000be5780634f1ef286146200019757806352d1902d14620001ae57806358d276f714620001d557600080fd5b80633659cfe614620000e85780633cc3e58d146200010f5780634cf088d91462000168575b600080fd5b348015620000f557600080fd5b506200010d620001073660046200158c565b6200031e565b005b3480156200011c57600080fd5b5060cb546200013e9073ffffffffffffffffffffffffffffffffffffffff1681565b60405173ffffffffffffffffffffffffffffffffffffffff90911681526020015b60405180910390f35b3480156200017557600080fd5b5060cc546200013e9073ffffffffffffffffffffffffffffffffffffffff1681565b6200010d620001a8366004620016a7565b62000531565b348015620001bb57600080fd5b50620001c662000731565b6040519081526020016200015f565b348015620001e257600080fd5b506200021e620001f43660046200158c565b73ffffffffffffffffffffffffffffffffffffffff16600090815260ca6020526040902054151590565b60405190151581526020016200015f565b3480156200023c57600080fd5b50620001c660c95481565b3480156200025457600080fd5b506200010d6200081f565b3480156200026c57600080fd5b506200013e6200027e36600462001733565b62000837565b3480156200029157600080fd5b5060335473ffffffffffffffffffffffffffffffffffffffff166200013e565b348015620002be57600080fd5b50620001c6620002d03660046200158c565b60ca6020526000908152604090205481565b6200010d620002f33660046200158c565b62000a8d565b3480156200030657600080fd5b506200010d620003183660046200158c565b62000c33565b3073ffffffffffffffffffffffffffffffffffffffff7f0000000000000000000000000000000000000000000000000000000000000000161415620003ea576040517f08c379a000000000000000000000000000000000000000000000000000000000815260206004820152602c60248201527f46756e6374696f6e206d7573742062652063616c6c6564207468726f7567682060448201527f64656c656761746563616c6c000000000000000000000000000000000000000060648201526084015b60405180910390fd5b7f000000000000000000000000000000000000000000000000000000000000000073ffffffffffffffffffffffffffffffffffffffff16620004607f360894a13ba1a3210667c828492db98dca3e2076cc3735a920a3ca505d382bbc5473ffffffffffffffffffffffffffffffffffffffff1690565b73ffffffffffffffffffffffffffffffffffffffff161462000505576040517f08c379a000000000000000000000000000000000000000000000000000000000815260206004820152602c60248201527f46756e6374696f6e206d7573742062652063616c6c6564207468726f7567682060448201527f6163746976652070726f787900000000000000000000000000000000000000006064820152608401620003e1565b620005108162000ced565b604080516000808252602082019092526200052e9183919062000cf7565b50565b3073ffffffffffffffffffffffffffffffffffffffff7f0000000000000000000000000000000000000000000000000000000000000000161415620005f9576040517f08c379a000000000000000000000000000000000000000000000000000000000815260206004820152602c60248201527f46756e6374696f6e206d7573742062652063616c6c6564207468726f7567682060448201527f64656c656761746563616c6c00000000000000000000000000000000000000006064820152608401620003e1565b7f000000000000000000000000000000000000000000000000000000000000000073ffffffffffffffffffffffffffffffffffffffff166200066f7f360894a13ba1a3210667c828492db98dca3e2076cc3735a920a3ca505d382bbc5473ffffffffffffffffffffffffffffffffffffffff1690565b73ffffffffffffffffffffffffffffffffffffffff161462000714576040517f08c379a000000000000000000000000000000000000000000000000000000000815260206004820152602c60248201527f46756e6374696f6e206d7573742062652063616c6c6564207468726f7567682060448201527f6163746976652070726f787900000000000000000000000000000000000000006064820152608401620003e1565b6200071f8262000ced565b6200072d8282600162000cf7565b5050565b60003073ffffffffffffffffffffffffffffffffffffffff7f00000000000000000000000000000000000000000000000000000000000000001614620007fa576040517f08c379a000000000000000000000000000000000000000000000000000000000815260206004820152603860248201527f555550535570677261646561626c653a206d757374206e6f742062652063616c60448201527f6c6564207468726f7567682064656c656761746563616c6c00000000000000006064820152608401620003e1565b507f360894a13ba1a3210667c828492db98dca3e2076cc3735a920a3ca505d382bbc90565b6200082962000f17565b62000835600062000f9a565b565b60cc546040517f1af963aa000000000000000000000000000000000000000000000000000000008152336004820152600091829173ffffffffffffffffffffffffffffffffffffffff90911690631af963aa9060240160206040518083038186803b158015620008a657600080fd5b505afa158015620008bb573d6000803e3d6000fd5b505050506040513d601f19601f82011682018060405250810190620008e1919062001826565b905060018115151462000977576040517f08c379a000000000000000000000000000000000000000000000000000000000815260206004820152602e60248201527f4e6565647320746f207374616b6520484d5420746f6b656e7320746f2063726560448201527f61746520616e20657363726f772e0000000000000000000000000000000000006064820152608401620003e1565b60008533336283d600886040516200098f9062001554565b6200099f9594939291906200184a565b604051809103906000f080158015620009bc573d6000803e3d6000fd5b5060c980549192506000620009d183620018cd565b909155505060c95473ffffffffffffffffffffffffffffffffffffffff8216600081815260ca6020526040908190209290925560cb80547fffffffffffffffffffffffff0000000000000000000000000000000000000000168217905590517fde4a6895269de599430e1230956361cbe11b52ad149311a97123c73666c521419162000a62918991908890620019a9565b60405180910390a1505060cb5473ffffffffffffffffffffffffffffffffffffffff16949350505050565b600054610100900460ff161580801562000aae5750600054600160ff909116105b8062000aca5750303b15801562000aca575060005460ff166001145b62000b58576040517f08c379a000000000000000000000000000000000000000000000000000000000815260206004820152602e60248201527f496e697469616c697a61626c653a20636f6e747261637420697320616c72656160448201527f647920696e697469616c697a65640000000000000000000000000000000000006064820152608401620003e1565b600080547fffffffffffffffffffffffffffffffffffffffffffffffffffffffffffffff00166001179055801562000bb757600080547fffffffffffffffffffffffffffffffffffffffffffffffffffffffffffff00ff166101001790555b62000bc162001011565b62000bcc82620010b5565b80156200072d57600080547fffffffffffffffffffffffffffffffffffffffffffffffffffffffffffff00ff169055604051600181527f7f26b83ff96e1f2b6a682f133852f6798a09c465da95921460cefb38474024989060200160405180910390a15050565b62000c3d62000f17565b73ffffffffffffffffffffffffffffffffffffffff811662000ce2576040517f08c379a000000000000000000000000000000000000000000000000000000000815260206004820152602660248201527f4f776e61626c653a206e6577206f776e657220697320746865207a65726f206160448201527f64647265737300000000000000000000000000000000000000000000000000006064820152608401620003e1565b6200052e8162000f9a565b6200052e62000f17565b7f4910fdfa16fed3260ed0e7147f7cc6da11a60208b5b9406d12a635614ffd91435460ff161562000d325762000d2d836200121b565b505050565b8273ffffffffffffffffffffffffffffffffffffffff166352d1902d6040518163ffffffff1660e01b815260040160206040518083038186803b15801562000d7957600080fd5b505afa92505050801562000dca575060408051601f3d9081017fffffffffffffffffffffffffffffffffffffffffffffffffffffffffffffffe016820190925262000dc791810190620019ed565b60015b62000e58576040517f08c379a000000000000000000000000000000000000000000000000000000000815260206004820152602e60248201527f45524331393637557067726164653a206e657720696d706c656d656e7461746960448201527f6f6e206973206e6f7420555550530000000000000000000000000000000000006064820152608401620003e1565b7f360894a13ba1a3210667c828492db98dca3e2076cc3735a920a3ca505d382bbc811462000f09576040517f08c379a000000000000000000000000000000000000000000000000000000000815260206004820152602960248201527f45524331393637557067726164653a20756e737570706f727465642070726f7860448201527f6961626c655555494400000000000000000000000000000000000000000000006064820152608401620003e1565b5062000d2d83838362001327565b60335473ffffffffffffffffffffffffffffffffffffffff16331462000835576040517f08c379a000000000000000000000000000000000000000000000000000000000815260206004820181905260248201527f4f776e61626c653a2063616c6c6572206973206e6f7420746865206f776e65726044820152606401620003e1565b6033805473ffffffffffffffffffffffffffffffffffffffff8381167fffffffffffffffffffffffff0000000000000000000000000000000000000000831681179093556040519116919082907f8be0079c531659141344cd1fd0a4f28419497f9722a3daafe3b4186f6b6457e090600090a35050565b600054610100900460ff16620010aa576040517f08c379a000000000000000000000000000000000000000000000000000000000815260206004820152602b60248201527f496e697469616c697a61626c653a20636f6e7472616374206973206e6f74206960448201527f6e697469616c697a696e670000000000000000000000000000000000000000006064820152608401620003e1565b620008353362000f9a565b600054610100900460ff166200114e576040517f08c379a000000000000000000000000000000000000000000000000000000000815260206004820152602b60248201527f496e697469616c697a61626c653a20636f6e7472616374206973206e6f74206960448201527f6e697469616c697a696e670000000000000000000000000000000000000000006064820152608401620003e1565b60408051808201909152601b81527f457363726f77466163746f72793a205a65726f20416464726573730000000000602082015273ffffffffffffffffffffffffffffffffffffffff8216620011d3576040517f08c379a0000000000000000000000000000000000000000000000000000000008152600401620003e1919062001a07565b5060cc80547fffffffffffffffffffffffff00000000000000000000000000000000000000001673ffffffffffffffffffffffffffffffffffffffff92909216919091179055565b73ffffffffffffffffffffffffffffffffffffffff81163b620012c1576040517f08c379a000000000000000000000000000000000000000000000000000000000815260206004820152602d60248201527f455243313936373a206e657720696d706c656d656e746174696f6e206973206e60448201527f6f74206120636f6e7472616374000000000000000000000000000000000000006064820152608401620003e1565b7f360894a13ba1a3210667c828492db98dca3e2076cc3735a920a3ca505d382bbc80547fffffffffffffffffffffffff00000000000000000000000000000000000000001673ffffffffffffffffffffffffffffffffffffffff92909216919091179055565b620013328362001358565b600082511180620013405750805b1562000d2d57620013528383620013a7565b50505050565b62001363816200121b565b60405173ffffffffffffffffffffffffffffffffffffffff8216907fbc7cd75a20ee27fd9adebab32041f755214dbc6bffa90cc0225b39da2e5c2d3b90600090a250565b6060620013cf8383604051806060016040528060278152602001620050c560279139620013d6565b9392505050565b60606000808573ffffffffffffffffffffffffffffffffffffffff168560405162001402919062001a1c565b600060405180830381855af49150503d80600081146200143f576040519150601f19603f3d011682016040523d82523d6000602084013e62001444565b606091505b5091509150620014578683838762001461565b9695505050505050565b60608315620014f9578251620014f15773ffffffffffffffffffffffffffffffffffffffff85163b620014f1576040517f08c379a000000000000000000000000000000000000000000000000000000000815260206004820152601d60248201527f416464726573733a2063616c6c20746f206e6f6e2d636f6e74726163740000006044820152606401620003e1565b508162001505565b6200150583836200150d565b949350505050565b8151156200151e5781518083602001fd5b806040517f08c379a0000000000000000000000000000000000000000000000000000000008152600401620003e1919062001a07565b61368a8062001a3b83390190565b803573ffffffffffffffffffffffffffffffffffffffff811681146200158757600080fd5b919050565b6000602082840312156200159f57600080fd5b620013cf8262001562565b7f4e487b7100000000000000000000000000000000000000000000000000000000600052604160045260246000fd5b604051601f82017fffffffffffffffffffffffffffffffffffffffffffffffffffffffffffffffe016810167ffffffffffffffff81118282101715620016235762001623620015aa565b604052919050565b600067ffffffffffffffff831115620016485762001648620015aa565b6200167b60207fffffffffffffffffffffffffffffffffffffffffffffffffffffffffffffffe0601f86011601620015d9565b90508281528383830111156200169057600080fd5b828260208301376000602084830101529392505050565b60008060408385031215620016bb57600080fd5b620016c68362001562565b9150602083013567ffffffffffffffff811115620016e357600080fd5b8301601f81018513620016f557600080fd5b62001706858235602084016200162b565b9150509250929050565b600082601f8301126200172257600080fd5b620013cf838335602085016200162b565b6000806000606084860312156200174957600080fd5b620017548462001562565b925060208085013567ffffffffffffffff808211156200177357600080fd5b818701915087601f8301126200178857600080fd5b8135818111156200179d576200179d620015aa565b8060051b620017ae858201620015d9565b918252838101850191858101908b841115620017c957600080fd5b948601945b83861015620017f257620017e28662001562565b82529486019490860190620017ce565b975050505060408701359250808311156200180c57600080fd5b50506200181c8682870162001710565b9150509250925092565b6000602082840312156200183957600080fd5b81518015158114620013cf57600080fd5b600060a0820173ffffffffffffffffffffffffffffffffffffffff8089168452602081891681860152818816604086015286606086015260a0608086015282865180855260c087019150828801945060005b81811015620018bc5785518516835294830194918301916001016200189c565b50909b9a5050505050505050505050565b60007fffffffffffffffffffffffffffffffffffffffffffffffffffffffffffffffff82141562001927577f4e487b7100000000000000000000000000000000000000000000000000000000600052601160045260246000fd5b5060010190565b60005b838110156200194b57818101518382015260200162001931565b83811115620013525750506000910152565b60008151808452620019778160208601602086016200192e565b601f017fffffffffffffffffffffffffffffffffffffffffffffffffffffffffffffffe0169290920160200192915050565b600073ffffffffffffffffffffffffffffffffffffffff808616835280851660208401525060606040830152620019e460608301846200195d565b95945050505050565b60006020828403121562001a0057600080fd5b5051919050565b602081526000620013cf60208301846200195d565b6000825162001a308184602087016200192e565b919091019291505056fe60806040523480156200001157600080fd5b506040516200368a3803806200368a8339810160408190526200003491620003d7565b600160005560408051808201909152601481527f457363726f773a207a65726f206164647265737300000000000000000000000060208201526001600160a01b038616620000a05760405162461bcd60e51b8152600401620000979190620004f7565b60405180910390fd5b5060408051808201909152601481527f457363726f773a207a65726f206164647265737300000000000000000000000060208201526001600160a01b038416620000ff5760405162461bcd60e51b8152600401620000979190620004f7565b50600680546001600160a01b0319166001600160a01b0387161790556001805460ff191690556200013d8242620001be602090811b62001d3417901c565b600c55600380546001600160a01b038087166001600160a01b0319928316811790935560048054918716918316821790556005805490921633179091556000918252600d6020526040808320805460ff199081166001908117909255928452922080549091169091179055620001b38162000228565b5050505050620005b4565b600080620001cd838562000565565b905083811015620002215760405162461bcd60e51b815260206004820152601b60248201527f536166654d6174683a206164646974696f6e206f766572666c6f770000000000604482015260640162000097565b9392505050565b60005b8151811015620003925760006001600160a01b031682828151811062000255576200025562000580565b60200260200101516001600160a01b031614156040518060400160405280601481526020017f457363726f773a207a65726f206164647265737300000000000000000000000081525090620002bf5760405162461bcd60e51b8152600401620000979190620004f7565b506001600d6000848481518110620002db57620002db62000580565b60200260200101516001600160a01b03166001600160a01b0316815260200190815260200160002060006101000a81548160ff0219169083151502179055507fad3769ac0c1a91ee9dcf369f6d2989f91572b6f876933bbc82ab85f6b969a07a82828151811062000350576200035062000580565b60200260200101516040516200037591906001600160a01b0391909116815260200190565b60405180910390a180620003898162000596565b9150506200022b565b5050565b6001600160a01b0381168114620003ac57600080fd5b50565b8051620003bc8162000396565b919050565b634e487b7160e01b600052604160045260246000fd5b600080600080600060a08688031215620003f057600080fd5b8551620003fd8162000396565b80955050602080870151620004128162000396565b6040880151909550620004258162000396565b6060880151608089015191955093506001600160401b03808211156200044a57600080fd5b818901915089601f8301126200045f57600080fd5b815181811115620004745762000474620003c1565b8060051b604051601f19603f830116810181811085821117156200049c576200049c620003c1565b60405291825284820192508381018501918c831115620004bb57600080fd5b938501935b82851015620004e457620004d485620003af565b84529385019392850192620004c0565b8096505050505050509295509295909350565b600060208083528351808285015260005b81811015620005265785810183015185820160400152820162000508565b8181111562000539576000604083870101525b50601f01601f1916929092016040019392505050565b634e487b7160e01b600052601160045260246000fd5b600082198211156200057b576200057b6200054f565b500190565b634e487b7160e01b600052603260045260246000fd5b6000600019821415620005ad57620005ad6200054f565b5060010190565b6130c680620005c46000396000f3fe608060405234801561001057600080fd5b50600436106101985760003560e01c8063992d454d116100e3578063bdd1daaa1161008c578063f17171e911610066578063f17171e91461038c578063fad844c1146103af578063fc0c546a146103d457600080fd5b8063bdd1daaa1461032f578063c479bbf81461034f578063ea8a1af01461037457600080fd5b8063a96014b6116100bd578063a96014b614610301578063b63d1a0014610314578063ba5fed341461032757600080fd5b8063992d454d146102c65780639c48b102146102e65780639eb262f3146102ee57600080fd5b806335a063b411610145578063697e4b871161011f578063697e4b871461025b57806378c624201461026e5780639753e432146102a657600080fd5b806335a063b41461024157806343aba9c21461024b578063522e11771461025357600080fd5b806316eebd1e1161017657806316eebd1e146101da578063200d2ed21461021f578063337f3f321461023957600080fd5b80630f46c9aa1461019d5780630fb5a6b4146101bb57806312065fe0146101d2575b600080fd5b6101a56103f4565b6040516101b2919061282d565b60405180910390f35b6101c4600c5481565b6040519081526020016101b2565b6101c4610482565b6003546101fa9073ffffffffffffffffffffffffffffffffffffffff1681565b60405173ffffffffffffffffffffffffffffffffffffffff90911681526020016101b2565b60015461022c9060ff1681565b6040516101b2919061286f565b6101a56105c9565b6102496105d6565b005b6101a5610788565b610249610795565b6102496102693660046129bc565b610976565b600554610294907501000000000000000000000000000000000000000000900460ff1681565b60405160ff90911681526020016101b2565b6002546101fa9073ffffffffffffffffffffffffffffffffffffffff1681565b6004546101fa9073ffffffffffffffffffffffffffffffffffffffff1681565b6101a5610c63565b6102496102fc366004612adf565b610c70565b61024961030f366004612b25565b610cf5565b610249610322366004612bca565b611196565b6101a5611aa8565b6005546101fa9073ffffffffffffffffffffffffffffffffffffffff1681565b6005546102949074010000000000000000000000000000000000000000900460ff1681565b61037c611ab5565b60405190151581526020016101b2565b61037c61039a366004612cd3565b600d6020526000908152604090205460ff1681565b6001546101fa90610100900473ffffffffffffffffffffffffffffffffffffffff1681565b6006546101fa9073ffffffffffffffffffffffffffffffffffffffff1681565b600b805461040190612cee565b80601f016020809104026020016040519081016040528092919081815260200182805461042d90612cee565b801561047a5780601f1061044f5761010080835404028352916020019161047a565b820191906000526020600020905b81548152906001019060200180831161045d57829003601f168201915b505050505081565b6006546040513060248201526000918291829173ffffffffffffffffffffffffffffffffffffffff16907f70a08231b98ef4ca268c9cc3f6b4590e4bfec28280db06bb5d45e689f2a360be90604401604080517fffffffffffffffffffffffffffffffffffffffffffffffffffffffffffffffe08184030181529181526020820180517bffffffffffffffffffffffffffffffffffffffffffffffffffffffff167fffffffff0000000000000000000000000000000000000000000000000000000090941693909317909252905161055a9190612d42565b600060405180830381855afa9150503d8060008114610595576040519150601f19603f3d011682016040523d82523d6000602084013e61059a565b606091505b509150915081156105c057808060200190518101906105b99190612d5e565b9250505090565b60009250505090565b6008805461040190612cee565b336000908152600d602052604090205460ff16610654576040517f08c379a000000000000000000000000000000000000000000000000000000000815260206004820152601b60248201527f416464726573732063616c6c696e67206e6f742074727573746564000000000060448201526064015b60405180910390fd5b600460015460ff16600581111561066d5761066d612840565b14156106d5576040517f08c379a000000000000000000000000000000000000000000000000000000000815260206004820152601f60248201527f457363726f7720696e20436f6d706c6574652073746174757320737461746500604482015260640161064b565b600360015460ff1660058111156106ee576106ee612840565b1415610756576040517f08c379a000000000000000000000000000000000000000000000000000000000815260206004820152601b60248201527f457363726f7720696e2050616964207374617475732073746174650000000000604482015260640161064b565b61075e610482565b1561076d5761076b611ab5565b505b60045473ffffffffffffffffffffffffffffffffffffffff16ff5b600a805461040190612cee565b42600c5411610800576040517f08c379a000000000000000000000000000000000000000000000000000000000815260206004820152601060248201527f436f6e7472616374206578706972656400000000000000000000000000000000604482015260640161064b565b336000908152600d602052604090205460ff168061083a5750600154610100900473ffffffffffffffffffffffffffffffffffffffff1633145b6108a0576040517f08c379a000000000000000000000000000000000000000000000000000000000815260206004820152601b60248201527f416464726573732063616c6c696e67206e6f7420747275737465640000000000604482015260640161064b565b600360015460ff1660058111156108b9576108b9612840565b14610920576040517f08c379a000000000000000000000000000000000000000000000000000000000815260206004820152601860248201527f457363726f77206e6f7420696e20506169642073746174650000000000000000604482015260640161064b565b600180547fffffffffffffffffffffffffffffffffffffffffffffffffffffffffffffff001660041790556040517fe06452d00b2b58f14a1fa6d499ea982ff93ea827ae700ea9ba03f4daddc94bc190600090a1565b336000908152600d602052604090205460ff16806109ab575060025473ffffffffffffffffffffffffffffffffffffffff1633145b610a11576040517f08c379a000000000000000000000000000000000000000000000000000000000815260206004820152601b60248201527f416464726573732063616c6c696e67206e6f7420747275737465640000000000604482015260640161064b565b42600c5411610a7c576040517f08c379a000000000000000000000000000000000000000000000000000000000815260206004820152601060248201527f436f6e7472616374206578706972656400000000000000000000000000000000604482015260640161064b565b6001805460ff166005811115610a9457610a94612840565b1480610ab65750600260015460ff166005811115610ab457610ab4612840565b145b610b42576040517f08c379a000000000000000000000000000000000000000000000000000000000815260206004820152602d60248201527f457363726f77206e6f7420696e2050656e64696e67206f72205061727469616c60448201527f2073746174757320737461746500000000000000000000000000000000000000606482015260840161064b565b8151610baa576040517f08c379a000000000000000000000000000000000000000000000000000000000815260206004820152601260248201527f55524c2063616e277420626520656d7074790000000000000000000000000000604482015260640161064b565b8051610c12576040517f08c379a000000000000000000000000000000000000000000000000000000000815260206004820152601360248201527f486173682063616e277420626520656d70747900000000000000000000000000604482015260640161064b565b8151610c2590600990602085019061271a565b507fb20e0717219840fd5684a80bec782e8babb56ea224f677561b791a61192605c18282604051610c57929190612d77565b60405180910390a15050565b6007805461040190612cee565b336000908152600d602052604090205460ff16610ce9576040517f08c379a000000000000000000000000000000000000000000000000000000000815260206004820152601b60248201527f416464726573732063616c6c696e67206e6f7420747275737465640000000000604482015260640161064b565b610cf281611db6565b50565b336000908152600d602052604090205460ff16610d6e576040517f08c379a000000000000000000000000000000000000000000000000000000000815260206004820152601b60248201527f416464726573732063616c6c696e67206e6f7420747275737465640000000000604482015260640161064b565b42600c5411610dd9576040517f08c379a000000000000000000000000000000000000000000000000000000000815260206004820152601060248201527f436f6e7472616374206578706972656400000000000000000000000000000000604482015260640161064b565b73ffffffffffffffffffffffffffffffffffffffff8616610e56576040517f08c379a000000000000000000000000000000000000000000000000000000000815260206004820181905260248201527f496e76616c6964206f72206d697373696e6720746f6b656e207370656e646572604482015260640161064b565b73ffffffffffffffffffffffffffffffffffffffff8516610ed3576040517f08c379a000000000000000000000000000000000000000000000000000000000815260206004820181905260248201527f496e76616c6964206f72206d697373696e6720746f6b656e207370656e646572604482015260640161064b565b6000610ee560ff808616908716612dcb565b90506064811115610f52576040517f08c379a000000000000000000000000000000000000000000000000000000000815260206004820152601860248201527f50657263656e74616765206f7574206f6620626f756e64730000000000000000604482015260640161064b565b600060015460ff166005811115610f6b57610f6b612840565b14610ff8576040517f08c379a000000000000000000000000000000000000000000000000000000000815260206004820152602360248201527f457363726f77206e6f7420696e204c61756e636865642073746174757320737460448201527f6174650000000000000000000000000000000000000000000000000000000000606482015260840161064b565b6001805473ffffffffffffffffffffffffffffffffffffffff808a16610100027fffffffffffffffffffffff0000000000000000000000000000000000000000ff90921691909117909155600280549188167fffffffffffffffffffffffff00000000000000000000000000000000000000009092169190911790556005805460ff8681167501000000000000000000000000000000000000000000027fffffffffffffffffffff00ffffffffffffffffffffffffffffffffffffffffff9189167401000000000000000000000000000000000000000002919091167fffffffffffffffffffff0000ffffffffffffffffffffffffffffffffffffffff90921691909117179055825161111290600790602086019061271a565b50815161112690600890602085019061271a565b50600180547fffffffffffffffffffffffffffffffffffffffffffffffffffffffffffffff0016811790556040517f8ec464ac0c8e44e17130cd1ffb09967fa6f2c33339289678a59ea0112cfc2aa99061118590600790600890612eba565b60405180910390a150505050505050565b336000908152600d602052604090205460ff16806111d05750600154610100900473ffffffffffffffffffffffffffffffffffffffff1633145b611236576040517f08c379a000000000000000000000000000000000000000000000000000000000815260206004820152601b60248201527f416464726573732063616c6c696e67206e6f7420747275737465640000000000604482015260640161064b565b61123e610482565b6112a4576040517f08c379a000000000000000000000000000000000000000000000000000000000815260206004820152601b60248201527f546f6b656e20636f6e7472616374206f7574206f662066756e64730000000000604482015260640161064b565b600060015460ff1660058111156112bd576112bd612840565b1415611325576040517f08c379a000000000000000000000000000000000000000000000000000000000815260206004820152601f60248201527f457363726f7720696e204c61756e636865642073746174757320737461746500604482015260640161064b565b600360015460ff16600581111561133e5761133e612840565b14156113a6576040517f08c379a000000000000000000000000000000000000000000000000000000000815260206004820152601b60248201527f457363726f7720696e2050616964207374617475732073746174650000000000604482015260640161064b565b42600c5411611411576040517f08c379a000000000000000000000000000000000000000000000000000000000815260206004820152601060248201527f436f6e7472616374206578706972656400000000000000000000000000000000604482015260640161064b565b611419611f6e565b83518551146114aa576040517f08c379a000000000000000000000000000000000000000000000000000000000815260206004820152602b60248201527f416d6f756e74206f6620726563697069656e747320616e642076616c7565732060448201527f646f6e2774206d61746368000000000000000000000000000000000000000000606482015260840161064b565b6000845111611515576040517f08c379a000000000000000000000000000000000000000000000000000000000815260206004820152601b60248201527f416d6f756e74732073686f756c64206e6f7420626520656d7074790000000000604482015260640161064b565b8451606411611580576040517f08c379a000000000000000000000000000000000000000000000000000000000815260206004820152601360248201527f546f6f206d616e7920726563697069656e747300000000000000000000000000604482015260640161064b565b600460015460ff16600581111561159957611599612840565b141580156115be5750600560015460ff1660058111156115bb576115bb612840565b14155b611624576040517f08c379a000000000000000000000000000000000000000000000000000000000815260206004820152600e60248201527f496e76616c696420737461747573000000000000000000000000000000000000604482015260640161064b565b600061162e610482565b90506000805b865181101561172657600087828151811061165157611651612edf565b6020026020010151116116e6576040517f08c379a000000000000000000000000000000000000000000000000000000000815260206004820152602260248201527f416d6f756e742073686f756c642062652067726561746572207468616e207a6560448201527f726f000000000000000000000000000000000000000000000000000000000000606482015260840161064b565b6117128782815181106116fb576116fb612edf565b602002602001015183611d3490919063ffffffff16565b91508061171e81612f0e565b915050611634565b506b033b2e3c9fd0803ce8000000811061179c576040517f08c379a000000000000000000000000000000000000000000000000000000000815260206004820152601360248201527f42756c6b2076616c756520746f6f206869676800000000000000000000000000604482015260640161064b565b81811115611806576040517f08c379a000000000000000000000000000000000000000000000000000000000815260206004820152601260248201527f4e6f7420656e6f7567682062616c616e63650000000000000000000000000000604482015260640161064b565b845161186e576040517f08c379a000000000000000000000000000000000000000000000000000000000815260206004820152601260248201527f55524c2063616e277420626520656d7074790000000000000000000000000000604482015260640161064b565b83516118d6576040517f08c379a000000000000000000000000000000000000000000000000000000000815260206004820152601360248201527f486173682063616e277420626520656d70747900000000000000000000000000604482015260640161064b565b84516118e990600a90602088019061271a565b5083516118fd90600b90602087019061271a565b50600080600061190c89611fe2565b92509250925060005b8a5181101561198c57600084828151811061193257611932612edf565b6020026020010151111561197c5761197c8b828151811061195557611955612edf565b602002602001015185838151811061196f5761196f612edf565b6020026020010151612174565b61198581612f0e565b9050611915565b5081156119bb576001546119bb90610100900473ffffffffffffffffffffffffffffffffffffffff1683612174565b80156119e4576002546119e49073ffffffffffffffffffffffffffffffffffffffff1682612174565b6119ec610482565b9450600085611a285750600180547fffffffffffffffffffffffffffffffffffffffffffffffffffffffffffffff001660031790556000611a55565b50600180547fffffffffffffffffffffffffffffffffffffffffffffffffffffffffffffff001660021781555b867f776950576f5bac7433f5095f1490841528a48d38607deca7d6f270988ec32b8a8c8684604051611a8993929190612f47565b60405180910390a2505050505050611aa16001600055565b5050505050565b6009805461040190612cee565b336000908152600d602052604081205460ff16611b2e576040517f08c379a000000000000000000000000000000000000000000000000000000000815260206004820152601b60248201527f416464726573732063616c6c696e67206e6f7420747275737465640000000000604482015260640161064b565b611b36610482565b611b9c576040517f08c379a000000000000000000000000000000000000000000000000000000000815260206004820152601b60248201527f546f6b656e20636f6e7472616374206f7574206f662066756e64730000000000604482015260640161064b565b600460015460ff166005811115611bb557611bb5612840565b1415611c1d576040517f08c379a000000000000000000000000000000000000000000000000000000000815260206004820152601f60248201527f457363726f7720696e20436f6d706c6574652073746174757320737461746500604482015260640161064b565b600360015460ff166005811115611c3657611c36612840565b1415611c9e576040517f08c379a000000000000000000000000000000000000000000000000000000000815260206004820152601b60248201527f457363726f7720696e2050616964207374617475732073746174650000000000604482015260640161064b565b611ca6611f6e565b600454611cd09073ffffffffffffffffffffffffffffffffffffffff16611ccb610482565b612174565b600180547fffffffffffffffffffffffffffffffffffffffffffffffffffffffffffffff001660051790556040517f63b958841f79ab97cb5456da181454b9932c0e15a3b17f1cbd27e2a8bc61043790600090a1506001611d316001600055565b90565b600080611d418385612dcb565b905083811015611dad576040517f08c379a000000000000000000000000000000000000000000000000000000000815260206004820152601b60248201527f536166654d6174683a206164646974696f6e206f766572666c6f770000000000604482015260640161064b565b90505b92915050565b60005b8151811015611f6a57600073ffffffffffffffffffffffffffffffffffffffff16828281518110611dec57611dec612edf565b602002602001015173ffffffffffffffffffffffffffffffffffffffff1614156040518060400160405280601481526020017f457363726f773a207a65726f206164647265737300000000000000000000000081525090611e7a576040517f08c379a000000000000000000000000000000000000000000000000000000000815260040161064b919061282d565b506001600d6000848481518110611e9357611e93612edf565b602002602001015173ffffffffffffffffffffffffffffffffffffffff1673ffffffffffffffffffffffffffffffffffffffff16815260200190815260200160002060006101000a81548160ff0219169083151502179055507fad3769ac0c1a91ee9dcf369f6d2989f91572b6f876933bbc82ab85f6b969a07a828281518110611f1f57611f1f612edf565b6020026020010151604051611f50919073ffffffffffffffffffffffffffffffffffffffff91909116815260200190565b60405180910390a180611f6281612f0e565b915050611db9565b5050565b60026000541415611fdb576040517f08c379a000000000000000000000000000000000000000000000000000000000815260206004820152601f60248201527f5265656e7472616e637947756172643a207265656e7472616e742063616c6c00604482015260640161064b565b6002600055565b60606000806000845167ffffffffffffffff811115612003576120036128b0565b60405190808252806020026020018201604052801561202c578160200160208202803683370190505b50905060008060005b875181101561216657600061208f60646120898b858151811061205a5761205a612edf565b602090810291909101015160055474010000000000000000000000000000000000000000900460ff1690612198565b9061224d565b905060006120dd60646120898c86815181106120ad576120ad612edf565b60209081029190910101516005547501000000000000000000000000000000000000000000900460ff1690612198565b9050600061211782612111858e88815181106120fb576120fb612edf565b602002602001015161228f90919063ffffffff16565b9061228f565b90506121238684611d34565b955061212f8583611d34565b94508087858151811061214457612144612edf565b602002602001018181525050505050808061215e90612f0e565b915050612035565b509196909550909350915050565b600654611f6a9073ffffffffffffffffffffffffffffffffffffffff1683836122d1565b6000826121a757506000611db0565b60006121b38385612fdf565b9050826121c0858361301c565b14611dad576040517f08c379a000000000000000000000000000000000000000000000000000000000815260206004820152602160248201527f536166654d6174683a206d756c7469706c69636174696f6e206f766572666c6f60448201527f7700000000000000000000000000000000000000000000000000000000000000606482015260840161064b565b6000611dad83836040518060400160405280601a81526020017f536166654d6174683a206469766973696f6e206279207a65726f000000000000815250612363565b6000611dad83836040518060400160405280601e81526020017f536166654d6174683a207375627472616374696f6e206f766572666c6f7700008152506123b4565b6040805173ffffffffffffffffffffffffffffffffffffffff8416602482015260448082018490528251808303909101815260649091019091526020810180517bffffffffffffffffffffffffffffffffffffffffffffffffffffffff167fa9059cbb0000000000000000000000000000000000000000000000000000000017905261235e9084906123ff565b505050565b6000818361239e576040517f08c379a000000000000000000000000000000000000000000000000000000000815260040161064b919061282d565b5060006123ab848661301c565b95945050505050565b600081848411156123f2576040517f08c379a000000000000000000000000000000000000000000000000000000000815260040161064b919061282d565b5060006123ab8486613057565b6000612461826040518060400160405280602081526020017f5361666545524332303a206c6f772d6c6576656c2063616c6c206661696c65648152508573ffffffffffffffffffffffffffffffffffffffff1661250e9092919063ffffffff16565b9050805160001480612482575080806020019051810190612482919061306e565b61235e576040517f08c379a000000000000000000000000000000000000000000000000000000000815260206004820152602a60248201527f5361666545524332303a204552433230206f7065726174696f6e20646964206e60448201527f6f74207375636365656400000000000000000000000000000000000000000000606482015260840161064b565b606061251d8484600085612525565b949350505050565b6060824710156125b7576040517f08c379a000000000000000000000000000000000000000000000000000000000815260206004820152602660248201527f416464726573733a20696e73756666696369656e742062616c616e636520666f60448201527f722063616c6c0000000000000000000000000000000000000000000000000000606482015260840161064b565b6000808673ffffffffffffffffffffffffffffffffffffffff1685876040516125e09190612d42565b60006040518083038185875af1925050503d806000811461261d576040519150601f19603f3d011682016040523d82523d6000602084013e612622565b606091505b50915091506126338783838761263e565b979650505050505050565b606083156126d15782516126ca5773ffffffffffffffffffffffffffffffffffffffff85163b6126ca576040517f08c379a000000000000000000000000000000000000000000000000000000000815260206004820152601d60248201527f416464726573733a2063616c6c20746f206e6f6e2d636f6e7472616374000000604482015260640161064b565b508161251d565b61251d83838151156126e65781518083602001fd5b806040517f08c379a000000000000000000000000000000000000000000000000000000000815260040161064b919061282d565b82805461272690612cee565b90600052602060002090601f016020900481019282612748576000855561278e565b82601f1061276157805160ff191683800117855561278e565b8280016001018555821561278e579182015b8281111561278e578251825591602001919060010190612773565b5061279a92915061279e565b5090565b5b8082111561279a576000815560010161279f565b60005b838110156127ce5781810151838201526020016127b6565b838111156127dd576000848401525b50505050565b600081518084526127fb8160208601602086016127b3565b601f017fffffffffffffffffffffffffffffffffffffffffffffffffffffffffffffffe0169290920160200192915050565b602081526000611dad60208301846127e3565b7f4e487b7100000000000000000000000000000000000000000000000000000000600052602160045260246000fd5b60208101600683106128aa577f4e487b7100000000000000000000000000000000000000000000000000000000600052602160045260246000fd5b91905290565b7f4e487b7100000000000000000000000000000000000000000000000000000000600052604160045260246000fd5b604051601f82017fffffffffffffffffffffffffffffffffffffffffffffffffffffffffffffffe016810167ffffffffffffffff81118282101715612926576129266128b0565b604052919050565b600082601f83011261293f57600080fd5b813567ffffffffffffffff811115612959576129596128b0565b61298a60207fffffffffffffffffffffffffffffffffffffffffffffffffffffffffffffffe0601f840116016128df565b81815284602083860101111561299f57600080fd5b816020850160208301376000918101602001919091529392505050565b600080604083850312156129cf57600080fd5b823567ffffffffffffffff808211156129e757600080fd5b6129f38683870161292e565b93506020850135915080821115612a0957600080fd5b50612a168582860161292e565b9150509250929050565b600067ffffffffffffffff821115612a3a57612a3a6128b0565b5060051b60200190565b803573ffffffffffffffffffffffffffffffffffffffff81168114612a6857600080fd5b919050565b600082601f830112612a7e57600080fd5b81356020612a93612a8e83612a20565b6128df565b82815260059290921b84018101918181019086841115612ab257600080fd5b8286015b84811015612ad457612ac781612a44565b8352918301918301612ab6565b509695505050505050565b600060208284031215612af157600080fd5b813567ffffffffffffffff811115612b0857600080fd5b61251d84828501612a6d565b803560ff81168114612a6857600080fd5b60008060008060008060c08789031215612b3e57600080fd5b612b4787612a44565b9550612b5560208801612a44565b9450612b6360408801612b14565b9350612b7160608801612b14565b9250608087013567ffffffffffffffff80821115612b8e57600080fd5b612b9a8a838b0161292e565b935060a0890135915080821115612bb057600080fd5b50612bbd89828a0161292e565b9150509295509295509295565b600080600080600060a08688031215612be257600080fd5b853567ffffffffffffffff80821115612bfa57600080fd5b612c0689838a01612a6d565b9650602091508188013581811115612c1d57600080fd5b8801601f81018a13612c2e57600080fd5b8035612c3c612a8e82612a20565b81815260059190911b8201840190848101908c831115612c5b57600080fd5b928501925b82841015612c7957833582529285019290850190612c60565b98505050506040880135915080821115612c9257600080fd5b612c9e89838a0161292e565b94506060880135915080821115612cb457600080fd5b50612cc18882890161292e565b95989497509295608001359392505050565b600060208284031215612ce557600080fd5b611dad82612a44565b600181811c90821680612d0257607f821691505b60208210811415612d3c577f4e487b7100000000000000000000000000000000000000000000000000000000600052602260045260246000fd5b50919050565b60008251612d548184602087016127b3565b9190910192915050565b600060208284031215612d7057600080fd5b5051919050565b604081526000612d8a60408301856127e3565b82810360208401526123ab81856127e3565b7f4e487b7100000000000000000000000000000000000000000000000000000000600052601160045260246000fd5b60008219821115612dde57612dde612d9c565b500190565b8054600090600181811c9080831680612dfd57607f831692505b6020808410821415612e38577f4e487b7100000000000000000000000000000000000000000000000000000000600052602260045260246000fd5b83885260208801828015612e535760018114612e8257612ead565b7fffffffffffffffffffffffffffffffffffffffffffffffffffffffffffffff00871682528282019750612ead565b60008981526020902060005b87811015612ea757815484820152908601908401612e8e565b83019850505b5050505050505092915050565b604081526000612ecd6040830185612de3565b82810360208401526123ab8185612de3565b7f4e487b7100000000000000000000000000000000000000000000000000000000600052603260045260246000fd5b60007fffffffffffffffffffffffffffffffffffffffffffffffffffffffffffffffff821415612f4057612f40612d9c565b5060010190565b606080825284519082018190526000906020906080840190828801845b82811015612f9657815173ffffffffffffffffffffffffffffffffffffffff1684529284019290840190600101612f64565b5050508381038285015285518082528683019183019060005b81811015612fcb57835183529284019291840191600101612faf565b50508515156040860152925061251d915050565b6000817fffffffffffffffffffffffffffffffffffffffffffffffffffffffffffffffff048311821515161561301757613017612d9c565b500290565b600082613052577f4e487b7100000000000000000000000000000000000000000000000000000000600052601260045260246000fd5b500490565b60008282101561306957613069612d9c565b500390565b60006020828403121561308057600080fd5b81518015158114611dad57600080fdfea2646970667358221220a173e5f3ffd6d1dd873385d2c448feaca122b14bcc706738aab78dffafb9389f64736f6c63430008090033416464726573733a206c6f772d6c6576656c2064656c65676174652063616c6c206661696c6564a2646970667358221220a7464a2425268d11946b9aee3884d9e5b6624bae2e1d40974ad3700a67b4331f64736f6c63430008090033",
  "linkReferences": {},
  "deployedLinkReferences": {}
}