{
  "_format": "hh-sol-artifact-1",
  "contractName": "EtherbaseUpgradeable",
  "sourceName": "contracts/EtherbaseUpgradeable.sol",
  "abi": [
    {
      "inputs": [
        {
          "internalType": "address",
          "name": "unauthorizedSender",
          "type": "address"
        }
      ],
      "name": "Unauthorized",
      "type": "error"
    },
    {
      "anonymous": false,
      "inputs": [
        {
          "indexed": false,
          "internalType": "address",
          "name": "sender",
          "type": "address"
        },
        {
          "indexed": false,
          "internalType": "uint256",
          "name": "amount",
          "type": "uint256"
        }
      ],
      "name": "EtherReceived",
      "type": "event"
    },
    {
      "anonymous": false,
      "inputs": [
        {
          "indexed": false,
          "internalType": "address",
          "name": "receiver",
          "type": "address"
        },
        {
          "indexed": false,
          "internalType": "uint256",
          "name": "amount",
          "type": "uint256"
        }
      ],
      "name": "EtherSent",
      "type": "event"
    },
    {
      "anonymous": false,
      "inputs": [
        {
          "indexed": false,
          "internalType": "uint8",
          "name": "version",
          "type": "uint8"
        }
      ],
      "name": "Initialized",
      "type": "event"
    },
    {
      "anonymous": false,
      "inputs": [
        {
          "indexed": true,
          "internalType": "bytes32",
          "name": "role",
          "type": "bytes32"
        },
        {
          "indexed": true,
          "internalType": "bytes32",
          "name": "previousAdminRole",
          "type": "bytes32"
        },
        {
          "indexed": true,
          "internalType": "bytes32",
          "name": "newAdminRole",
          "type": "bytes32"
        }
      ],
      "name": "RoleAdminChanged",
      "type": "event"
    },
    {
      "anonymous": false,
      "inputs": [
        {
          "indexed": true,
          "internalType": "bytes32",
          "name": "role",
          "type": "bytes32"
        },
        {
          "indexed": true,
          "internalType": "address",
          "name": "account",
          "type": "address"
        },
        {
          "indexed": true,
          "internalType": "address",
          "name": "sender",
          "type": "address"
        }
      ],
      "name": "RoleGranted",
      "type": "event"
    },
    {
      "anonymous": false,
      "inputs": [
        {
          "indexed": true,
          "internalType": "bytes32",
          "name": "role",
          "type": "bytes32"
        },
        {
          "indexed": true,
          "internalType": "address",
          "name": "account",
          "type": "address"
        },
        {
          "indexed": true,
          "internalType": "address",
          "name": "sender",
          "type": "address"
        }
      ],
      "name": "RoleRevoked",
      "type": "event"
    },
    {
      "anonymous": false,
      "inputs": [
        {
          "indexed": false,
          "internalType": "string",
          "name": "oldVersion",
          "type": "string"
        },
        {
          "indexed": false,
          "internalType": "string",
          "name": "newVersion",
          "type": "string"
        }
      ],
      "name": "VersionUpdated",
      "type": "event"
    },
    {
      "inputs": [],
      "name": "DEFAULT_ADMIN_ROLE",
      "outputs": [
        {
          "internalType": "bytes32",
          "name": "",
          "type": "bytes32"
        }
      ],
      "stateMutability": "view",
      "type": "function"
    },
    {
      "inputs": [],
      "name": "ETHER_MANAGER_ROLE",
      "outputs": [
        {
          "internalType": "bytes32",
          "name": "",
          "type": "bytes32"
        }
      ],
      "stateMutability": "view",
      "type": "function"
    },
    {
      "inputs": [
        {
          "internalType": "bytes32",
          "name": "role",
          "type": "bytes32"
        }
      ],
      "name": "getRoleAdmin",
      "outputs": [
        {
          "internalType": "bytes32",
          "name": "",
          "type": "bytes32"
        }
      ],
      "stateMutability": "view",
      "type": "function"
    },
    {
      "inputs": [
        {
          "internalType": "bytes32",
          "name": "role",
          "type": "bytes32"
        },
        {
          "internalType": "uint256",
          "name": "index",
          "type": "uint256"
        }
      ],
      "name": "getRoleMember",
      "outputs": [
        {
          "internalType": "address",
          "name": "",
          "type": "address"
        }
      ],
      "stateMutability": "view",
      "type": "function"
    },
    {
      "inputs": [
        {
          "internalType": "bytes32",
          "name": "role",
          "type": "bytes32"
        }
      ],
      "name": "getRoleMemberCount",
      "outputs": [
        {
          "internalType": "uint256",
          "name": "",
          "type": "uint256"
        }
      ],
      "stateMutability": "view",
      "type": "function"
    },
    {
      "inputs": [
        {
          "internalType": "bytes32",
          "name": "role",
          "type": "bytes32"
        },
        {
          "internalType": "address",
          "name": "account",
          "type": "address"
        }
      ],
      "name": "grantRole",
      "outputs": [],
      "stateMutability": "nonpayable",
      "type": "function"
    },
    {
      "inputs": [
        {
          "internalType": "bytes32",
          "name": "role",
          "type": "bytes32"
        },
        {
          "internalType": "address",
          "name": "account",
          "type": "address"
        }
      ],
      "name": "hasRole",
      "outputs": [
        {
          "internalType": "bool",
          "name": "",
          "type": "bool"
        }
      ],
      "stateMutability": "view",
      "type": "function"
    },
    {
      "inputs": [
        {
          "internalType": "address",
          "name": "schainOwner",
          "type": "address"
        }
      ],
      "name": "initialize",
      "outputs": [],
      "stateMutability": "nonpayable",
      "type": "function"
    },
    {
      "inputs": [
        {
          "internalType": "address payable",
          "name": "receiver",
          "type": "address"
        },
        {
          "internalType": "uint256",
          "name": "amount",
          "type": "uint256"
        }
      ],
      "name": "partiallyRetrieve",
      "outputs": [],
      "stateMutability": "nonpayable",
      "type": "function"
    },
    {
      "inputs": [
        {
          "internalType": "bytes32",
          "name": "role",
          "type": "bytes32"
        },
        {
          "internalType": "address",
          "name": "account",
          "type": "address"
        }
      ],
      "name": "renounceRole",
      "outputs": [],
      "stateMutability": "nonpayable",
      "type": "function"
    },
    {
      "inputs": [
        {
          "internalType": "address payable",
          "name": "receiver",
          "type": "address"
        }
      ],
      "name": "retrieve",
      "outputs": [],
      "stateMutability": "nonpayable",
      "type": "function"
    },
    {
      "inputs": [
        {
          "internalType": "bytes32",
          "name": "role",
          "type": "bytes32"
        },
        {
          "internalType": "address",
          "name": "account",
          "type": "address"
        }
      ],
      "name": "revokeRole",
      "outputs": [],
      "stateMutability": "nonpayable",
      "type": "function"
    },
    {
      "inputs": [
        {
          "internalType": "string",
          "name": "newVersion",
          "type": "string"
        }
      ],
      "name": "setVersion",
      "outputs": [],
      "stateMutability": "nonpayable",
      "type": "function"
    },
    {
      "inputs": [
        {
          "internalType": "bytes4",
          "name": "interfaceId",
          "type": "bytes4"
        }
      ],
      "name": "supportsInterface",
      "outputs": [
        {
          "internalType": "bool",
          "name": "",
          "type": "bool"
        }
      ],
      "stateMutability": "view",
      "type": "function"
    },
    {
      "inputs": [],
      "name": "version",
      "outputs": [
        {
          "internalType": "string",
          "name": "",
          "type": "string"
        }
      ],
      "stateMutability": "view",
      "type": "function"
    },
    {
      "stateMutability": "payable",
      "type": "receive"
    }
  ],
  "bytecode": "0x608060405234801561001057600080fd5b50611375806100206000396000f3fe6080604052600436106100ec5760003560e01c8063788bc78c1161008a578063bc2a1e8d11610059578063bc2a1e8d146102d4578063c4d66de8146102f6578063ca15c87314610316578063d547741f1461033657600080fd5b8063788bc78c146102475780639010d07c1461026757806391d148541461029f578063a217fddf146102bf57600080fd5b8063248a9ca3116100c6578063248a9ca3146101a75780632f2ff15d146101e557806336568abe1461020557806354fd4d501461022557600080fd5b806301ffc9a7146101305780630a79309b14610165578063204a3e931461018757600080fd5b3661012b57604080513381523460208201527f1e57e3bb474320be3d2c77138f75b7c3941292d647f5f9634e33a8e94e0e069b910160405180910390a1005b600080fd5b34801561013c57600080fd5b5061015061014b366004610f03565b610356565b60405190151581526020015b60405180910390f35b34801561017157600080fd5b50610185610180366004610f42565b610381565b005b34801561019357600080fd5b506101856101a2366004610f5f565b6103f7565b3480156101b357600080fd5b506101d76101c2366004610f8b565b60009081526065602052604090206001015490565b60405190815260200161015c565b3480156101f157600080fd5b50610185610200366004610fa4565b610573565b34801561021157600080fd5b50610185610220366004610fa4565b610598565b34801561023157600080fd5b5061023a610616565b60405161015c9190611004565b34801561025357600080fd5b50610185610262366004611037565b6106a4565b34801561027357600080fd5b506102876102823660046110a9565b610716565b6040516001600160a01b03909116815260200161015c565b3480156102ab57600080fd5b506101506102ba366004610fa4565b610735565b3480156102cb57600080fd5b506101d7600081565b3480156102e057600080fd5b506101d760008051602061132083398151915281565b34801561030257600080fd5b50610185610311366004610f42565b610760565b34801561032257600080fd5b506101d7610331366004610f8b565b610894565b34801561034257600080fd5b50610185610351366004610fa4565b6108ab565b60006001600160e01b03198216635a05180f60e01b148061037b575061037b826108d0565b92915050565b61039960008051602061132083398151915233610735565b6103ea5760405162461bcd60e51b815260206004820152601e60248201527f45544845525f4d414e414745525f524f4c45206973207265717569726564000060448201526064015b60405180910390fd5b6103f481476103f7565b50565b61040f60008051602061132083398151915233610735565b61045b5760405162461bcd60e51b815260206004820152601e60248201527f45544845525f4d414e414745525f524f4c45206973207265717569726564000060448201526064016103e1565b6001600160a01b0382166104b15760405162461bcd60e51b815260206004820152601b60248201527f52656365697665722061646472657373206973206e6f7420736574000000000060448201526064016103e1565b478111156104f65760405162461bcd60e51b8152602060048201526012602482015271496e73756666696369656e742066756e647360701b60448201526064016103e1565b604080516001600160a01b0384168152602081018390527f6109e2559dfa766aaec7118351d48a523f0a4157f49c8d68749c8ac41318ad12910160405180910390a16040516001600160a01b0383169082156108fc029083906000818181858888f1935050505015801561056e573d6000803e3d6000fd5b505050565b60008281526065602052604090206001015461058e81610905565b61056e838361090f565b6001600160a01b03811633146106085760405162461bcd60e51b815260206004820152602f60248201527f416363657373436f6e74726f6c3a2063616e206f6e6c792072656e6f756e636560448201526e103937b632b9903337b91039b2b63360891b60648201526084016103e1565b6106128282610931565b5050565b60c98054610623906110cb565b80601f016020809104026020016040519081016040528092919081815260200182805461064f906110cb565b801561069c5780601f106106715761010080835404028352916020019161069c565b820191906000526020600020905b81548152906001019060200180831161067f57829003601f168201915b505050505081565b6106af600033610735565b6106ce5760405163472511eb60e11b81523360048201526024016103e1565b7f22efc5f993dce37856b77dd72d7d7661032380c9728c4133f3c071c591bc6ca760c983836040516107029392919061112f565b60405180910390a161056e60c98383610e6a565b600082815260976020526040812061072e9083610953565b9392505050565b60009182526065602090815260408084206001600160a01b0393909316845291905290205460ff1690565b600054610100900460ff16158080156107805750600054600160ff909116105b8061079a5750303b15801561079a575060005460ff166001145b6107fd5760405162461bcd60e51b815260206004820152602e60248201527f496e697469616c697a61626c653a20636f6e747261637420697320616c72656160448201526d191e481a5b9a5d1a585b1a5e995960921b60648201526084016103e1565b6000805460ff191660011790558015610820576000805461ff0019166101001790555b61082861095f565b6108336000836109cc565b61084b600080516020611320833981519152836109cc565b8015610612576000805461ff0019169055604051600181527f7f26b83ff96e1f2b6a682f133852f6798a09c465da95921460cefb38474024989060200160405180910390a15050565b600081815260976020526040812061037b906109d6565b6000828152606560205260409020600101546108c681610905565b61056e8383610931565b60006001600160e01b03198216637965db0b60e01b148061037b57506301ffc9a760e01b6001600160e01b031983161461037b565b6103f481336109e0565b6109198282610a39565b600082815260976020526040902061056e9082610abf565b61093b8282610ad4565b600082815260976020526040902061056e9082610b3b565b600061072e8383610b50565b600054610100900460ff166109ca5760405162461bcd60e51b815260206004820152602b60248201527f496e697469616c697a61626c653a20636f6e7472616374206973206e6f74206960448201526a6e697469616c697a696e6760a81b60648201526084016103e1565b565b610612828261090f565b600061037b825490565b6109ea8282610735565b610612576109f781610b7a565b610a02836020610b8c565b604051602001610a139291906111ed565b60408051601f198184030181529082905262461bcd60e51b82526103e191600401611004565b610a438282610735565b6106125760008281526065602090815260408083206001600160a01b03851684529091529020805460ff19166001179055610a7b3390565b6001600160a01b0316816001600160a01b0316837f2f8788117e7eff1d82e926ec794901d17c78024a50270940304540a733656f0d60405160405180910390a45050565b600061072e836001600160a01b038416610d28565b610ade8282610735565b156106125760008281526065602090815260408083206001600160a01b0385168085529252808320805460ff1916905551339285917ff6391f5c32d9c69d2a47ea670b442974b53935d1edc7fd64eb21e047a839171b9190a45050565b600061072e836001600160a01b038416610d77565b6000826000018281548110610b6757610b67611262565b9060005260206000200154905092915050565b606061037b6001600160a01b03831660145b60606000610b9b83600261128e565b610ba69060026112ad565b67ffffffffffffffff811115610bbe57610bbe6112c5565b6040519080825280601f01601f191660200182016040528015610be8576020820181803683370190505b509050600360fc1b81600081518110610c0357610c03611262565b60200101906001600160f81b031916908160001a905350600f60fb1b81600181518110610c3257610c32611262565b60200101906001600160f81b031916908160001a9053506000610c5684600261128e565b610c619060016112ad565b90505b6001811115610cd9576f181899199a1a9b1b9c1cb0b131b232b360811b85600f1660108110610c9557610c95611262565b1a60f81b828281518110610cab57610cab611262565b60200101906001600160f81b031916908160001a90535060049490941c93610cd2816112db565b9050610c64565b50831561072e5760405162461bcd60e51b815260206004820181905260248201527f537472696e67733a20686578206c656e67746820696e73756666696369656e7460448201526064016103e1565b6000818152600183016020526040812054610d6f5750815460018181018455600084815260208082209093018490558454848252828601909352604090209190915561037b565b50600061037b565b60008181526001830160205260408120548015610e60576000610d9b6001836112f2565b8554909150600090610daf906001906112f2565b9050818114610e14576000866000018281548110610dcf57610dcf611262565b9060005260206000200154905080876000018481548110610df257610df2611262565b6000918252602080832090910192909255918252600188019052604090208390555b8554869080610e2557610e25611309565b60019003818190600052602060002001600090559055856001016000868152602001908152602001600020600090556001935050505061037b565b600091505061037b565b828054610e76906110cb565b90600052602060002090601f016020900481019282610e985760008555610ede565b82601f10610eb15782800160ff19823516178555610ede565b82800160010185558215610ede579182015b82811115610ede578235825591602001919060010190610ec3565b50610eea929150610eee565b5090565b5b80821115610eea5760008155600101610eef565b600060208284031215610f1557600080fd5b81356001600160e01b03198116811461072e57600080fd5b6001600160a01b03811681146103f457600080fd5b600060208284031215610f5457600080fd5b813561072e81610f2d565b60008060408385031215610f7257600080fd5b8235610f7d81610f2d565b946020939093013593505050565b600060208284031215610f9d57600080fd5b5035919050565b60008060408385031215610fb757600080fd5b823591506020830135610fc981610f2d565b809150509250929050565b60005b83811015610fef578181015183820152602001610fd7565b83811115610ffe576000848401525b50505050565b6020815260008251806020840152611023816040850160208701610fd4565b601f01601f19169190910160400192915050565b6000806020838503121561104a57600080fd5b823567ffffffffffffffff8082111561106257600080fd5b818501915085601f83011261107657600080fd5b81358181111561108557600080fd5b86602082850101111561109757600080fd5b60209290920196919550909350505050565b600080604083850312156110bc57600080fd5b50508035926020909101359150565b600181811c908216806110df57607f821691505b6020821081141561110057634e487b7160e01b600052602260045260246000fd5b50919050565b81835281816020850137506000828201602090810191909152601f909101601f19169091010190565b60408152600080855481600182811c91508083168061114f57607f831692505b602080841082141561116f57634e487b7160e01b86526022600452602486fd5b604088018490526060880182801561118e576001811461119f576111ca565b60ff198716825282820197506111ca565b60008d81526020902060005b878110156111c4578154848201529086019084016111ab565b83019850505b50508786038189015250505050506111e3818587611106565b9695505050505050565b7f416363657373436f6e74726f6c3a206163636f756e7420000000000000000000815260008351611225816017850160208801610fd4565b7001034b99036b4b9b9b4b733903937b6329607d1b6017918401918201528351611256816028840160208801610fd4565b01602801949350505050565b634e487b7160e01b600052603260045260246000fd5b634e487b7160e01b600052601160045260246000fd5b60008160001904831182151516156112a8576112a8611278565b500290565b600082198211156112c0576112c0611278565b500190565b634e487b7160e01b600052604160045260246000fd5b6000816112ea576112ea611278565b506000190190565b60008282101561130457611304611278565b500390565b634e487b7160e01b600052603160045260246000fdfee0ba7b49edc651b7ad93b374c67f1e9a0d37370168bbb86b81c569ebfa15f046a2646970667358221220bcfa00f2fa30f8d628f8e8641469ff75da89686f0bd5e516512de18826de5b3b64736f6c634300080b0033",
  "linkReferences": {},
  "deployedLinkReferences": {}
}